{
  "contractName": "NumberPi",
  "abi": [
    {
      "inputs": [
        {
          "internalType": "string",
          "name": "_name",
          "type": "string"
        },
        {
          "internalType": "string",
          "name": "_symbol",
          "type": "string"
        },
        {
          "internalType": "string",
          "name": "_initBaseURI",
          "type": "string"
        },
        {
          "internalType": "string",
          "name": "_initNotRevealedUri",
          "type": "string"
        }
      ],
      "stateMutability": "nonpayable",
      "type": "constructor"
    },
    {
      "anonymous": false,
      "inputs": [
        {
          "indexed": true,
          "internalType": "address",
          "name": "owner",
          "type": "address"
        },
        {
          "indexed": true,
          "internalType": "address",
          "name": "approved",
          "type": "address"
        },
        {
          "indexed": true,
          "internalType": "uint256",
          "name": "tokenId",
          "type": "uint256"
        }
      ],
      "name": "Approval",
      "type": "event"
    },
    {
      "anonymous": false,
      "inputs": [
        {
          "indexed": true,
          "internalType": "address",
          "name": "owner",
          "type": "address"
        },
        {
          "indexed": true,
          "internalType": "address",
          "name": "operator",
          "type": "address"
        },
        {
          "indexed": false,
          "internalType": "bool",
          "name": "approved",
          "type": "bool"
        }
      ],
      "name": "ApprovalForAll",
      "type": "event"
    },
    {
      "anonymous": false,
      "inputs": [
        {
          "indexed": true,
          "internalType": "address",
          "name": "previousOwner",
          "type": "address"
        },
        {
          "indexed": true,
          "internalType": "address",
          "name": "newOwner",
          "type": "address"
        }
      ],
      "name": "OwnershipTransferred",
      "type": "event"
    },
    {
      "anonymous": false,
      "inputs": [
        {
          "indexed": true,
          "internalType": "address",
          "name": "from",
          "type": "address"
        },
        {
          "indexed": true,
          "internalType": "address",
          "name": "to",
          "type": "address"
        },
        {
          "indexed": true,
          "internalType": "uint256",
          "name": "tokenId",
          "type": "uint256"
        }
      ],
      "name": "Transfer",
      "type": "event"
    },
    {
      "inputs": [
        {
          "internalType": "address",
          "name": "",
          "type": "address"
        }
      ],
      "name": "addressMintedBalance",
      "outputs": [
        {
          "internalType": "uint256",
          "name": "",
          "type": "uint256"
        }
      ],
      "stateMutability": "view",
      "type": "function"
    },
    {
      "inputs": [
        {
          "internalType": "address",
          "name": "to",
          "type": "address"
        },
        {
          "internalType": "uint256",
          "name": "tokenId",
          "type": "uint256"
        }
      ],
      "name": "approve",
      "outputs": [],
      "stateMutability": "nonpayable",
      "type": "function"
    },
    {
      "inputs": [
        {
          "internalType": "address",
          "name": "owner",
          "type": "address"
        }
      ],
      "name": "balanceOf",
      "outputs": [
        {
          "internalType": "uint256",
          "name": "",
          "type": "uint256"
        }
      ],
      "stateMutability": "view",
      "type": "function"
    },
    {
      "inputs": [],
      "name": "baseExtension",
      "outputs": [
        {
          "internalType": "string",
          "name": "",
          "type": "string"
        }
      ],
      "stateMutability": "view",
      "type": "function"
    },
    {
      "inputs": [],
      "name": "baseURI",
      "outputs": [
        {
          "internalType": "string",
          "name": "",
          "type": "string"
        }
      ],
      "stateMutability": "view",
      "type": "function"
    },
    {
      "inputs": [],
      "name": "cost",
      "outputs": [
        {
          "internalType": "uint256",
          "name": "",
          "type": "uint256"
        }
      ],
      "stateMutability": "view",
      "type": "function"
    },
    {
      "inputs": [
        {
          "internalType": "uint256",
          "name": "tokenId",
          "type": "uint256"
        }
      ],
      "name": "getApproved",
      "outputs": [
        {
          "internalType": "address",
          "name": "",
          "type": "address"
        }
      ],
      "stateMutability": "view",
      "type": "function"
    },
    {
      "inputs": [
        {
          "internalType": "address",
          "name": "owner",
          "type": "address"
        },
        {
          "internalType": "address",
          "name": "operator",
          "type": "address"
        }
      ],
      "name": "isApprovedForAll",
      "outputs": [
        {
          "internalType": "bool",
          "name": "",
          "type": "bool"
        }
      ],
      "stateMutability": "view",
      "type": "function"
    },
    {
      "inputs": [],
      "name": "maxMintAmount",
      "outputs": [
        {
          "internalType": "uint256",
          "name": "",
          "type": "uint256"
        }
      ],
      "stateMutability": "view",
      "type": "function"
    },
    {
      "inputs": [],
      "name": "maxSupply",
      "outputs": [
        {
          "internalType": "uint256",
          "name": "",
          "type": "uint256"
        }
      ],
      "stateMutability": "view",
      "type": "function"
    },
    {
      "inputs": [],
      "name": "name",
      "outputs": [
        {
          "internalType": "string",
          "name": "",
          "type": "string"
        }
      ],
      "stateMutability": "view",
      "type": "function"
    },
    {
      "inputs": [],
      "name": "nftPerAddressLimit",
      "outputs": [
        {
          "internalType": "uint256",
          "name": "",
          "type": "uint256"
        }
      ],
      "stateMutability": "view",
      "type": "function"
    },
    {
      "inputs": [],
      "name": "notRevealedUri",
      "outputs": [
        {
          "internalType": "string",
          "name": "",
          "type": "string"
        }
      ],
      "stateMutability": "view",
      "type": "function"
    },
    {
      "inputs": [],
      "name": "onlyWhitelisted",
      "outputs": [
        {
          "internalType": "bool",
          "name": "",
          "type": "bool"
        }
      ],
      "stateMutability": "view",
      "type": "function"
    },
    {
      "inputs": [],
      "name": "owner",
      "outputs": [
        {
          "internalType": "address",
          "name": "",
          "type": "address"
        }
      ],
      "stateMutability": "view",
      "type": "function"
    },
    {
      "inputs": [
        {
          "internalType": "uint256",
          "name": "tokenId",
          "type": "uint256"
        }
      ],
      "name": "ownerOf",
      "outputs": [
        {
          "internalType": "address",
          "name": "",
          "type": "address"
        }
      ],
      "stateMutability": "view",
      "type": "function"
    },
    {
      "inputs": [],
      "name": "paused",
      "outputs": [
        {
          "internalType": "bool",
          "name": "",
          "type": "bool"
        }
      ],
      "stateMutability": "view",
      "type": "function"
    },
    {
      "inputs": [],
      "name": "renounceOwnership",
      "outputs": [],
      "stateMutability": "nonpayable",
      "type": "function"
    },
    {
      "inputs": [],
      "name": "revealed",
      "outputs": [
        {
          "internalType": "bool",
          "name": "",
          "type": "bool"
        }
      ],
      "stateMutability": "view",
      "type": "function"
    },
    {
      "inputs": [
        {
          "internalType": "address",
          "name": "from",
          "type": "address"
        },
        {
          "internalType": "address",
          "name": "to",
          "type": "address"
        },
        {
          "internalType": "uint256",
          "name": "tokenId",
          "type": "uint256"
        }
      ],
      "name": "safeTransferFrom",
      "outputs": [],
      "stateMutability": "nonpayable",
      "type": "function"
    },
    {
      "inputs": [
        {
          "internalType": "address",
          "name": "from",
          "type": "address"
        },
        {
          "internalType": "address",
          "name": "to",
          "type": "address"
        },
        {
          "internalType": "uint256",
          "name": "tokenId",
          "type": "uint256"
        },
        {
          "internalType": "bytes",
          "name": "_data",
          "type": "bytes"
        }
      ],
      "name": "safeTransferFrom",
      "outputs": [],
      "stateMutability": "nonpayable",
      "type": "function"
    },
    {
      "inputs": [
        {
          "internalType": "address",
          "name": "operator",
          "type": "address"
        },
        {
          "internalType": "bool",
          "name": "approved",
          "type": "bool"
        }
      ],
      "name": "setApprovalForAll",
      "outputs": [],
      "stateMutability": "nonpayable",
      "type": "function"
    },
    {
      "inputs": [
        {
          "internalType": "bytes4",
          "name": "interfaceId",
          "type": "bytes4"
        }
      ],
      "name": "supportsInterface",
      "outputs": [
        {
          "internalType": "bool",
          "name": "",
          "type": "bool"
        }
      ],
      "stateMutability": "view",
      "type": "function"
    },
    {
      "inputs": [],
      "name": "symbol",
      "outputs": [
        {
          "internalType": "string",
          "name": "",
          "type": "string"
        }
      ],
      "stateMutability": "view",
      "type": "function"
    },
    {
      "inputs": [
        {
          "internalType": "uint256",
          "name": "index",
          "type": "uint256"
        }
      ],
      "name": "tokenByIndex",
      "outputs": [
        {
          "internalType": "uint256",
          "name": "",
          "type": "uint256"
        }
      ],
      "stateMutability": "view",
      "type": "function"
    },
    {
      "inputs": [
        {
          "internalType": "address",
          "name": "owner",
          "type": "address"
        },
        {
          "internalType": "uint256",
          "name": "index",
          "type": "uint256"
        }
      ],
      "name": "tokenOfOwnerByIndex",
      "outputs": [
        {
          "internalType": "uint256",
          "name": "",
          "type": "uint256"
        }
      ],
      "stateMutability": "view",
      "type": "function"
    },
    {
      "inputs": [],
      "name": "totalSupply",
      "outputs": [
        {
          "internalType": "uint256",
          "name": "",
          "type": "uint256"
        }
      ],
      "stateMutability": "view",
      "type": "function"
    },
    {
      "inputs": [
        {
          "internalType": "address",
          "name": "from",
          "type": "address"
        },
        {
          "internalType": "address",
          "name": "to",
          "type": "address"
        },
        {
          "internalType": "uint256",
          "name": "tokenId",
          "type": "uint256"
        }
      ],
      "name": "transferFrom",
      "outputs": [],
      "stateMutability": "nonpayable",
      "type": "function"
    },
    {
      "inputs": [
        {
          "internalType": "address",
          "name": "newOwner",
          "type": "address"
        }
      ],
      "name": "transferOwnership",
      "outputs": [],
      "stateMutability": "nonpayable",
      "type": "function"
    },
    {
      "inputs": [
        {
          "internalType": "uint256",
          "name": "",
          "type": "uint256"
        }
      ],
      "name": "whitelistedAddresses",
      "outputs": [
        {
          "internalType": "address",
          "name": "",
          "type": "address"
        }
      ],
      "stateMutability": "view",
      "type": "function"
    },
    {
      "inputs": [
        {
          "internalType": "uint256",
          "name": "_mintAmount",
          "type": "uint256"
        }
      ],
      "name": "mint",
      "outputs": [],
      "stateMutability": "payable",
      "type": "function"
    },
    {
      "inputs": [
        {
          "internalType": "address",
          "name": "_user",
          "type": "address"
        }
      ],
      "name": "isWhitelisted",
      "outputs": [
        {
          "internalType": "bool",
          "name": "",
          "type": "bool"
        }
      ],
      "stateMutability": "view",
      "type": "function"
    },
    {
      "inputs": [
        {
          "internalType": "address",
          "name": "_owner",
          "type": "address"
        }
      ],
      "name": "walletOfOwner",
      "outputs": [
        {
          "internalType": "uint256[]",
          "name": "",
          "type": "uint256[]"
        }
      ],
      "stateMutability": "view",
      "type": "function"
    },
    {
      "inputs": [
        {
          "internalType": "uint256",
          "name": "tokenId",
          "type": "uint256"
        }
      ],
      "name": "tokenURI",
      "outputs": [
        {
          "internalType": "string",
          "name": "",
          "type": "string"
        }
      ],
      "stateMutability": "view",
      "type": "function"
    },
    {
      "inputs": [],
      "name": "reveal",
      "outputs": [],
      "stateMutability": "nonpayable",
      "type": "function"
    },
    {
      "inputs": [
        {
          "internalType": "uint256",
          "name": "_limit",
          "type": "uint256"
        }
      ],
      "name": "setNftPerAddressLimit",
      "outputs": [],
      "stateMutability": "nonpayable",
      "type": "function"
    },
    {
      "inputs": [
        {
          "internalType": "uint256",
          "name": "_newCost",
          "type": "uint256"
        }
      ],
      "name": "setCost",
      "outputs": [],
      "stateMutability": "nonpayable",
      "type": "function"
    },
    {
      "inputs": [
        {
          "internalType": "uint256",
          "name": "_newmaxMintAmount",
          "type": "uint256"
        }
      ],
      "name": "setmaxMintAmount",
      "outputs": [],
      "stateMutability": "nonpayable",
      "type": "function"
    },
    {
      "inputs": [
        {
          "internalType": "string",
          "name": "_newBaseURI",
          "type": "string"
        }
      ],
      "name": "setBaseURI",
      "outputs": [],
      "stateMutability": "nonpayable",
      "type": "function"
    },
    {
      "inputs": [
        {
          "internalType": "string",
          "name": "_newBaseExtension",
          "type": "string"
        }
      ],
      "name": "setBaseExtension",
      "outputs": [],
      "stateMutability": "nonpayable",
      "type": "function"
    },
    {
      "inputs": [
        {
          "internalType": "string",
          "name": "_notRevealedURI",
          "type": "string"
        }
      ],
      "name": "setNotRevealedURI",
      "outputs": [],
      "stateMutability": "nonpayable",
      "type": "function"
    },
    {
      "inputs": [
        {
          "internalType": "bool",
          "name": "_state",
          "type": "bool"
        }
      ],
      "name": "pause",
      "outputs": [],
      "stateMutability": "nonpayable",
      "type": "function"
    },
    {
      "inputs": [
        {
          "internalType": "bool",
          "name": "_state",
          "type": "bool"
        }
      ],
      "name": "setOnlyWhitelisted",
      "outputs": [],
      "stateMutability": "nonpayable",
      "type": "function"
    },
    {
      "inputs": [
        {
          "internalType": "address[]",
          "name": "_users",
          "type": "address[]"
        }
      ],
      "name": "whitelistUsers",
      "outputs": [],
      "stateMutability": "nonpayable",
      "type": "function"
    },
    {
      "inputs": [],
      "name": "withdraw",
      "outputs": [],
      "stateMutability": "payable",
      "type": "function"
    }
  ],
  "bytecode": "0x60c06040526005608081905264173539b7b760d91b60a09081526200002891600c91906200020c565b50670186cc6acd4b0000600e55610c45600f5560146010556103e86011556012805462ffffff1916620100001790553480156200006457600080fd5b5060405162002ee938038062002ee9833981016040819052620000879162000365565b835184908490620000a09060009060208501906200020c565b508051620000b69060019060208401906200020c565b505050620000d3620000cd620000f360201b60201c565b620000f7565b620000de8262000149565b620000e981620001b1565b505050506200046c565b3390565b600a80546001600160a01b038381166001600160a01b0319831681179093556040519116919082907f8be0079c531659141344cd1fd0a4f28419497f9722a3daafe3b4186f6b6457e090600090a35050565b600a546001600160a01b03163314620001985760405162461bcd60e51b8152602060048201819052602482015260008051602062002ec983398151915260448201526064015b60405180910390fd5b8051620001ad90600b9060208401906200020c565b5050565b600a546001600160a01b03163314620001fc5760405162461bcd60e51b8152602060048201819052602482015260008051602062002ec983398151915260448201526064016200018f565b8051620001ad90600d9060208401905b8280546200021a9062000419565b90600052602060002090601f0160209004810192826200023e576000855562000289565b82601f106200025957805160ff191683800117855562000289565b8280016001018555821562000289579182015b82811115620002895782518255916020019190600101906200026c565b50620002979291506200029b565b5090565b5b808211156200029757600081556001016200029c565b600082601f830112620002c3578081fd5b81516001600160401b0380821115620002e057620002e062000456565b604051601f8301601f19908116603f011681019082821181831017156200030b576200030b62000456565b8160405283815260209250868385880101111562000327578485fd5b8491505b838210156200034a57858201830151818301840152908201906200032b565b838211156200035b57848385830101525b9695505050505050565b600080600080608085870312156200037b578384fd5b84516001600160401b038082111562000392578586fd5b620003a088838901620002b2565b95506020870151915080821115620003b6578485fd5b620003c488838901620002b2565b94506040870151915080821115620003da578384fd5b620003e888838901620002b2565b93506060870151915080821115620003fe578283fd5b506200040d87828801620002b2565b91505092959194509250565b600181811c908216806200042e57607f821691505b602082108114156200045057634e487b7160e01b600052602260045260246000fd5b50919050565b634e487b7160e01b600052604160045260246000fd5b612a4d806200047c6000396000f3fe6080604052600436106102725760003560e01c80636352211e1161014f578063b88d4fde116100c1578063d5abeb011161007a578063d5abeb0114610717578063da3ef23f1461072d578063e985e9c51461074d578063edec5f2714610796578063f2c4ce1e146107b6578063f2fde38b146107d657600080fd5b8063b88d4fde1461066c578063ba4e5c491461068c578063ba7d2c76146106ac578063c6682862146106c2578063c87b56dd146106d7578063d0eb26b0146106f757600080fd5b80638da5cb5b116101135780638da5cb5b146105d157806395d89b41146105ef5780639c70b51214610604578063a0712d6814610624578063a22cb46514610637578063a475b5dd1461065757600080fd5b80636352211e146105475780636c0360eb1461056757806370a082311461057c578063715018a61461059c5780637f00c7a6146105b157600080fd5b80632f745c59116101e8578063438b6300116101ac578063438b63001461048157806344a0d68a146104ae5780634f6ccce7146104ce57806351830227146104ee57806355f804b31461050d5780635c975abb1461052d57600080fd5b80632f745c59146103f95780633af32abf146104195780633c952764146104395780633ccfd60b1461045957806342842e0e1461046157600080fd5b8063095ea7b31161023a578063095ea7b31461033d57806313faede61461035d57806318160ddd1461038157806318cae26914610396578063239c70ae146103c357806323b872dd146103d957600080fd5b806301ffc9a71461027757806302329a29146102ac57806306fdde03146102ce578063081812fc146102f0578063081c8c4414610328575b600080fd5b34801561028357600080fd5b506102976102923660046125d7565b6107f6565b60405190151581526020015b60405180910390f35b3480156102b857600080fd5b506102cc6102c73660046125bd565b610821565b005b3480156102da57600080fd5b506102e3610867565b6040516102a391906127dc565b3480156102fc57600080fd5b5061031061030b366004612655565b6108f9565b6040516001600160a01b0390911681526020016102a3565b34801561033457600080fd5b506102e361098e565b34801561034957600080fd5b506102cc610358366004612524565b610a1c565b34801561036957600080fd5b50610373600e5481565b6040519081526020016102a3565b34801561038d57600080fd5b50600854610373565b3480156103a257600080fd5b506103736103b13660046123fb565b60146020526000908152604090205481565b3480156103cf57600080fd5b5061037360105481565b3480156103e557600080fd5b506102cc6103f4366004612447565b610b32565b34801561040557600080fd5b50610373610414366004612524565b610b63565b34801561042557600080fd5b506102976104343660046123fb565b610bf9565b34801561044557600080fd5b506102cc6104543660046125bd565b610c71565b6102cc610cb7565b34801561046d57600080fd5b506102cc61047c366004612447565b610d55565b34801561048d57600080fd5b506104a161049c3660046123fb565b610d70565b6040516102a39190612798565b3480156104ba57600080fd5b506102cc6104c9366004612655565b610e2e565b3480156104da57600080fd5b506103736104e9366004612655565b610e5d565b3480156104fa57600080fd5b5060125461029790610100900460ff1681565b34801561051957600080fd5b506102cc61052836600461260f565b610efe565b34801561053957600080fd5b506012546102979060ff1681565b34801561055357600080fd5b50610310610562366004612655565b610f3f565b34801561057357600080fd5b506102e3610fb6565b34801561058857600080fd5b506103736105973660046123fb565b610fc3565b3480156105a857600080fd5b506102cc61104a565b3480156105bd57600080fd5b506102cc6105cc366004612655565b611080565b3480156105dd57600080fd5b50600a546001600160a01b0316610310565b3480156105fb57600080fd5b506102e36110af565b34801561061057600080fd5b506012546102979062010000900460ff1681565b6102cc610632366004612655565b6110be565b34801561064357600080fd5b506102cc6106523660046124fb565b6113a5565b34801561066357600080fd5b506102cc6113b0565b34801561067857600080fd5b506102cc610687366004612482565b6113eb565b34801561069857600080fd5b506103106106a7366004612655565b611423565b3480156106b857600080fd5b5061037360115481565b3480156106ce57600080fd5b506102e361144d565b3480156106e357600080fd5b506102e36106f2366004612655565b61145a565b34801561070357600080fd5b506102cc610712366004612655565b6115d9565b34801561072357600080fd5b50610373600f5481565b34801561073957600080fd5b506102cc61074836600461260f565b611608565b34801561075957600080fd5b50610297610768366004612415565b6001600160a01b03918216600090815260056020908152604080832093909416825291909152205460ff1690565b3480156107a257600080fd5b506102cc6107b136600461254d565b611645565b3480156107c257600080fd5b506102cc6107d136600461260f565b611687565b3480156107e257600080fd5b506102cc6107f13660046123fb565b6116c4565b60006001600160e01b0319821663780e9d6360e01b148061081b575061081b8261175c565b92915050565b600a546001600160a01b031633146108545760405162461bcd60e51b815260040161084b90612841565b60405180910390fd5b6012805460ff1916911515919091179055565b60606000805461087690612955565b80601f01602080910402602001604051908101604052809291908181526020018280546108a290612955565b80156108ef5780601f106108c4576101008083540402835291602001916108ef565b820191906000526020600020905b8154815290600101906020018083116108d257829003601f168201915b5050505050905090565b6000818152600260205260408120546001600160a01b03166109725760405162461bcd60e51b815260206004820152602c60248201527f4552433732313a20617070726f76656420717565727920666f72206e6f6e657860448201526b34b9ba32b73a103a37b5b2b760a11b606482015260840161084b565b506000908152600460205260409020546001600160a01b031690565b600d805461099b90612955565b80601f01602080910402602001604051908101604052809291908181526020018280546109c790612955565b8015610a145780601f106109e957610100808354040283529160200191610a14565b820191906000526020600020905b8154815290600101906020018083116109f757829003601f168201915b505050505081565b6000610a2782610f3f565b9050806001600160a01b0316836001600160a01b03161415610a955760405162461bcd60e51b815260206004820152602160248201527f4552433732313a20617070726f76616c20746f2063757272656e74206f776e656044820152603960f91b606482015260840161084b565b336001600160a01b0382161480610ab15750610ab18133610768565b610b235760405162461bcd60e51b815260206004820152603860248201527f4552433732313a20617070726f76652063616c6c6572206973206e6f74206f7760448201527f6e6572206e6f7220617070726f76656420666f7220616c6c0000000000000000606482015260840161084b565b610b2d83836117ac565b505050565b610b3c338261181a565b610b585760405162461bcd60e51b815260040161084b90612876565b610b2d838383611911565b6000610b6e83610fc3565b8210610bd05760405162461bcd60e51b815260206004820152602b60248201527f455243373231456e756d657261626c653a206f776e657220696e646578206f7560448201526a74206f6620626f756e647360a81b606482015260840161084b565b506001600160a01b03919091166000908152600660209081526040808320938352929052205490565b6000805b601354811015610c6857826001600160a01b031660138281548110610c3257634e487b7160e01b600052603260045260246000fd5b6000918252602090912001546001600160a01b03161415610c565750600192915050565b80610c6081612990565b915050610bfd565b50600092915050565b600a546001600160a01b03163314610c9b5760405162461bcd60e51b815260040161084b90612841565b60128054911515620100000262ff000019909216919091179055565b600a546001600160a01b03163314610ce15760405162461bcd60e51b815260040161084b90612841565b6000610cf5600a546001600160a01b031690565b6001600160a01b03164760405160006040518083038185875af1925050503d8060008114610d3f576040519150601f19603f3d011682016040523d82523d6000602084013e610d44565b606091505b5050905080610d5257600080fd5b50565b610b2d838383604051806020016040528060008152506113eb565b60606000610d7d83610fc3565b905060008167ffffffffffffffff811115610da857634e487b7160e01b600052604160045260246000fd5b604051908082528060200260200182016040528015610dd1578160200160208202803683370190505b50905060005b82811015610e2657610de98582610b63565b828281518110610e0957634e487b7160e01b600052603260045260246000fd5b602090810291909101015280610e1e81612990565b915050610dd7565b509392505050565b600a546001600160a01b03163314610e585760405162461bcd60e51b815260040161084b90612841565b600e55565b6000610e6860085490565b8210610ecb5760405162461bcd60e51b815260206004820152602c60248201527f455243373231456e756d657261626c653a20676c6f62616c20696e646578206f60448201526b7574206f6620626f756e647360a01b606482015260840161084b565b60088281548110610eec57634e487b7160e01b600052603260045260246000fd5b90600052602060002001549050919050565b600a546001600160a01b03163314610f285760405162461bcd60e51b815260040161084b90612841565b8051610f3b90600b90602084019061224f565b5050565b6000818152600260205260408120546001600160a01b03168061081b5760405162461bcd60e51b815260206004820152602960248201527f4552433732313a206f776e657220717565727920666f72206e6f6e657869737460448201526832b73a103a37b5b2b760b91b606482015260840161084b565b600b805461099b90612955565b60006001600160a01b03821661102e5760405162461bcd60e51b815260206004820152602a60248201527f4552433732313a2062616c616e636520717565727920666f7220746865207a65604482015269726f206164647265737360b01b606482015260840161084b565b506001600160a01b031660009081526003602052604090205490565b600a546001600160a01b031633146110745760405162461bcd60e51b815260040161084b90612841565b61107e6000611ab8565b565b600a546001600160a01b031633146110aa5760405162461bcd60e51b815260040161084b90612841565b601055565b60606001805461087690612955565b60125460ff161561110a5760405162461bcd60e51b81526020600482015260166024820152751d1a194818dbdb9d1c9858dd081a5cc81c185d5cd95960521b604482015260640161084b565b600061111560085490565b9050600082116111675760405162461bcd60e51b815260206004820152601b60248201527f6e65656420746f206d696e74206174206c656173742031204e46540000000000604482015260640161084b565b6010548211156111c55760405162461bcd60e51b8152602060048201526024808201527f6d6178206d696e7420616d6f756e74207065722073657373696f6e20657863656044820152631959195960e21b606482015260840161084b565b600f546111d283836128c7565b11156112195760405162461bcd60e51b81526020600482015260166024820152751b585e08139195081b1a5b5a5d08195e18d95959195960521b604482015260640161084b565b600a546001600160a01b031633146113555760125462010000900460ff161515600114156113035761124a33610bf9565b6112965760405162461bcd60e51b815260206004820152601760248201527f75736572206973206e6f742077686974656c6973746564000000000000000000604482015260640161084b565b336000908152601460205260409020546011546112b384836128c7565b11156113015760405162461bcd60e51b815260206004820152601c60248201527f6d6178204e465420706572206164647265737320657863656564656400000000604482015260640161084b565b505b81600e5461131191906128f3565b3410156113555760405162461bcd60e51b8152602060048201526012602482015271696e73756666696369656e742066756e647360701b604482015260640161084b565b60015b828111610b2d5733600090815260146020526040812080549161137a83612990565b9091555061139390503361138e83856128c7565b611b0a565b8061139d81612990565b915050611358565b610f3b338383611b24565b600a546001600160a01b031633146113da5760405162461bcd60e51b815260040161084b90612841565b6012805461ff001916610100179055565b6113f5338361181a565b6114115760405162461bcd60e51b815260040161084b90612876565b61141d84848484611bf3565b50505050565b6013818154811061143357600080fd5b6000918252602090912001546001600160a01b0316905081565b600c805461099b90612955565b6000818152600260205260409020546060906001600160a01b03166114d95760405162461bcd60e51b815260206004820152602f60248201527f4552433732314d657461646174613a2055524920717565727920666f72206e6f60448201526e3732bc34b9ba32b73a103a37b5b2b760891b606482015260840161084b565b601254610100900460ff1661157a57600d80546114f590612955565b80601f016020809104026020016040519081016040528092919081815260200182805461152190612955565b801561156e5780601f106115435761010080835404028352916020019161156e565b820191906000526020600020905b81548152906001019060200180831161155157829003601f168201915b50505050509050919050565b6000611584611c26565b905060008151116115a457604051806020016040528060008152506115d2565b806115ae84611c35565b600c6040516020016115c293929190612699565b6040516020818303038152906040525b9392505050565b600a546001600160a01b031633146116035760405162461bcd60e51b815260040161084b90612841565b601155565b600a546001600160a01b031633146116325760405162461bcd60e51b815260040161084b90612841565b8051610f3b90600c90602084019061224f565b600a546001600160a01b0316331461166f5760405162461bcd60e51b815260040161084b90612841565b61167b601360006122d3565b610b2d601383836122f1565b600a546001600160a01b031633146116b15760405162461bcd60e51b815260040161084b90612841565b8051610f3b90600d90602084019061224f565b600a546001600160a01b031633146116ee5760405162461bcd60e51b815260040161084b90612841565b6001600160a01b0381166117535760405162461bcd60e51b815260206004820152602660248201527f4f776e61626c653a206e6577206f776e657220697320746865207a65726f206160448201526564647265737360d01b606482015260840161084b565b610d5281611ab8565b60006001600160e01b031982166380ac58cd60e01b148061178d57506001600160e01b03198216635b5e139f60e01b145b8061081b57506301ffc9a760e01b6001600160e01b031983161461081b565b600081815260046020526040902080546001600160a01b0319166001600160a01b03841690811790915581906117e182610f3f565b6001600160a01b03167f8c5be1e5ebec7d5bd14f71427d1e84f3dd0314c0f7b2291e5b200ac8c7c3b92560405160405180910390a45050565b6000818152600260205260408120546001600160a01b03166118935760405162461bcd60e51b815260206004820152602c60248201527f4552433732313a206f70657261746f7220717565727920666f72206e6f6e657860448201526b34b9ba32b73a103a37b5b2b760a11b606482015260840161084b565b600061189e83610f3f565b9050806001600160a01b0316846001600160a01b031614806118d95750836001600160a01b03166118ce846108f9565b6001600160a01b0316145b8061190957506001600160a01b0380821660009081526005602090815260408083209388168352929052205460ff165b949350505050565b826001600160a01b031661192482610f3f565b6001600160a01b0316146119885760405162461bcd60e51b815260206004820152602560248201527f4552433732313a207472616e736665722066726f6d20696e636f72726563742060448201526437bbb732b960d91b606482015260840161084b565b6001600160a01b0382166119ea5760405162461bcd60e51b8152602060048201526024808201527f4552433732313a207472616e7366657220746f20746865207a65726f206164646044820152637265737360e01b606482015260840161084b565b6119f5838383611d4f565b611a006000826117ac565b6001600160a01b0383166000908152600360205260408120805460019290611a29908490612912565b90915550506001600160a01b0382166000908152600360205260408120805460019290611a579084906128c7565b909155505060008181526002602052604080822080546001600160a01b0319166001600160a01b0386811691821790925591518493918716917fddf252ad1be2c89b69c2b068fc378daa952ba7f163c4a11628f55a4df523b3ef91a4505050565b600a80546001600160a01b038381166001600160a01b0319831681179093556040519116919082907f8be0079c531659141344cd1fd0a4f28419497f9722a3daafe3b4186f6b6457e090600090a35050565b610f3b828260405180602001604052806000815250611e07565b816001600160a01b0316836001600160a01b03161415611b865760405162461bcd60e51b815260206004820152601960248201527f4552433732313a20617070726f766520746f2063616c6c657200000000000000604482015260640161084b565b6001600160a01b03838116600081815260056020908152604080832094871680845294825291829020805460ff191686151590811790915591519182527f17307eab39ab6107e8899845ad3d59bd9653f200f220920489ca2b5937696c31910160405180910390a3505050565b611bfe848484611911565b611c0a84848484611e3a565b61141d5760405162461bcd60e51b815260040161084b906127ef565b6060600b805461087690612955565b606081611c595750506040805180820190915260018152600360fc1b602082015290565b8160005b8115611c835780611c6d81612990565b9150611c7c9050600a836128df565b9150611c5d565b60008167ffffffffffffffff811115611cac57634e487b7160e01b600052604160045260246000fd5b6040519080825280601f01601f191660200182016040528015611cd6576020820181803683370190505b5090505b841561190957611ceb600183612912565b9150611cf8600a866129ab565b611d039060306128c7565b60f81b818381518110611d2657634e487b7160e01b600052603260045260246000fd5b60200101906001600160f81b031916908160001a905350611d48600a866128df565b9450611cda565b6001600160a01b038316611daa57611da581600880546000838152600960205260408120829055600182018355919091527ff3f7a9fe364faab93b216da50a3214154f22a0a2b415b23a84c8169e8b636ee30155565b611dcd565b816001600160a01b0316836001600160a01b031614611dcd57611dcd8382611f47565b6001600160a01b038216611de457610b2d81611fe4565b826001600160a01b0316826001600160a01b031614610b2d57610b2d82826120bd565b611e118383612101565b611e1e6000848484611e3a565b610b2d5760405162461bcd60e51b815260040161084b906127ef565b60006001600160a01b0384163b15611f3c57604051630a85bd0160e11b81526001600160a01b0385169063150b7a0290611e7e90339089908890889060040161275b565b602060405180830381600087803b158015611e9857600080fd5b505af1925050508015611ec8575060408051601f3d908101601f19168201909252611ec5918101906125f3565b60015b611f22573d808015611ef6576040519150601f19603f3d011682016040523d82523d6000602084013e611efb565b606091505b508051611f1a5760405162461bcd60e51b815260040161084b906127ef565b805181602001fd5b6001600160e01b031916630a85bd0160e11b149050611909565b506001949350505050565b60006001611f5484610fc3565b611f5e9190612912565b600083815260076020526040902054909150808214611fb1576001600160a01b03841660009081526006602090815260408083208584528252808320548484528184208190558352600790915290208190555b5060009182526007602090815260408084208490556001600160a01b039094168352600681528383209183525290812055565b600854600090611ff690600190612912565b6000838152600960205260408120546008805493945090928490811061202c57634e487b7160e01b600052603260045260246000fd5b90600052602060002001549050806008838154811061205b57634e487b7160e01b600052603260045260246000fd5b60009182526020808320909101929092558281526009909152604080822084905585825281205560088054806120a157634e487b7160e01b600052603160045260246000fd5b6001900381819060005260206000200160009055905550505050565b60006120c883610fc3565b6001600160a01b039093166000908152600660209081526040808320868452825280832085905593825260079052919091209190915550565b6001600160a01b0382166121575760405162461bcd60e51b815260206004820181905260248201527f4552433732313a206d696e7420746f20746865207a65726f2061646472657373604482015260640161084b565b6000818152600260205260409020546001600160a01b0316156121bc5760405162461bcd60e51b815260206004820152601c60248201527f4552433732313a20746f6b656e20616c7265616479206d696e74656400000000604482015260640161084b565b6121c860008383611d4f565b6001600160a01b03821660009081526003602052604081208054600192906121f19084906128c7565b909155505060008181526002602052604080822080546001600160a01b0319166001600160a01b03861690811790915590518392907fddf252ad1be2c89b69c2b068fc378daa952ba7f163c4a11628f55a4df523b3ef908290a45050565b82805461225b90612955565b90600052602060002090601f01602090048101928261227d57600085556122c3565b82601f1061229657805160ff19168380011785556122c3565b828001600101855582156122c3579182015b828111156122c35782518255916020019190600101906122a8565b506122cf929150612344565b5090565b5080546000825590600052602060002090810190610d529190612344565b8280548282559060005260206000209081019282156122c3579160200282015b828111156122c35781546001600160a01b0319166001600160a01b03843516178255602090920191600190910190612311565b5b808211156122cf5760008155600101612345565b600067ffffffffffffffff80841115612374576123746129eb565b604051601f8501601f19908116603f0116810190828211818310171561239c5761239c6129eb565b816040528093508581528686860111156123b557600080fd5b858560208301376000602087830101525050509392505050565b80356001600160a01b03811681146123e657600080fd5b919050565b803580151581146123e657600080fd5b60006020828403121561240c578081fd5b6115d2826123cf565b60008060408385031215612427578081fd5b612430836123cf565b915061243e602084016123cf565b90509250929050565b60008060006060848603121561245b578081fd5b612464846123cf565b9250612472602085016123cf565b9150604084013590509250925092565b60008060008060808587031215612497578081fd5b6124a0856123cf565b93506124ae602086016123cf565b925060408501359150606085013567ffffffffffffffff8111156124d0578182fd5b8501601f810187136124e0578182fd5b6124ef87823560208401612359565b91505092959194509250565b6000806040838503121561250d578182fd5b612516836123cf565b915061243e602084016123eb565b60008060408385031215612536578182fd5b61253f836123cf565b946020939093013593505050565b6000806020838503121561255f578182fd5b823567ffffffffffffffff80821115612576578384fd5b818501915085601f830112612589578384fd5b813581811115612597578485fd5b8660208260051b85010111156125ab578485fd5b60209290920196919550909350505050565b6000602082840312156125ce578081fd5b6115d2826123eb565b6000602082840312156125e8578081fd5b81356115d281612a01565b600060208284031215612604578081fd5b81516115d281612a01565b600060208284031215612620578081fd5b813567ffffffffffffffff811115612636578182fd5b8201601f81018413612646578182fd5b61190984823560208401612359565b600060208284031215612666578081fd5b5035919050565b60008151808452612685816020860160208601612929565b601f01601f19169290920160200192915050565b6000845160206126ac8285838a01612929565b8551918401916126bf8184848a01612929565b85549201918390600181811c90808316806126db57607f831692505b8583108114156126f957634e487b7160e01b88526022600452602488fd5b80801561270d576001811461271e5761274a565b60ff1985168852838801955061274a565b60008b815260209020895b858110156127425781548a820152908401908801612729565b505083880195505b50939b9a5050505050505050505050565b6001600160a01b038581168252841660208201526040810183905260806060820181905260009061278e9083018461266d565b9695505050505050565b6020808252825182820181905260009190848201906040850190845b818110156127d0578351835292840192918401916001016127b4565b50909695505050505050565b6020815260006115d2602083018461266d565b60208082526032908201527f4552433732313a207472616e7366657220746f206e6f6e20455243373231526560408201527131b2b4bb32b91034b6b83632b6b2b73a32b960711b606082015260800190565b6020808252818101527f4f776e61626c653a2063616c6c6572206973206e6f7420746865206f776e6572604082015260600190565b60208082526031908201527f4552433732313a207472616e736665722063616c6c6572206973206e6f74206f6040820152701ddb995c881b9bdc88185c1c1c9bdd9959607a1b606082015260800190565b600082198211156128da576128da6129bf565b500190565b6000826128ee576128ee6129d5565b500490565b600081600019048311821515161561290d5761290d6129bf565b500290565b600082821015612924576129246129bf565b500390565b60005b8381101561294457818101518382015260200161292c565b8381111561141d5750506000910152565b600181811c9082168061296957607f821691505b6020821081141561298a57634e487b7160e01b600052602260045260246000fd5b50919050565b60006000198214156129a4576129a46129bf565b5060010190565b6000826129ba576129ba6129d5565b500690565b634e487b7160e01b600052601160045260246000fd5b634e487b7160e01b600052601260045260246000fd5b634e487b7160e01b600052604160045260246000fd5b6001600160e01b031981168114610d5257600080fdfea2646970667358221220f1fb0059d5827cc3a57f5fc5bbf57aebfa3632f659aba510839ea5808b4ef67364736f6c634300080400334f776e61626c653a2063616c6c6572206973206e6f7420746865206f776e6572",
  "immutableReferences": {},
  "source": "// SPDX-License-Identifier: GPL-3.0\r\npragma solidity ^0.8.0;\r\n\r\nimport \"@openzeppelin/contracts/token/ERC721/extensions/ERC721Enumerable.sol\";\r\nimport \"@openzeppelin/contracts/access/Ownable.sol\";\r\n\r\ncontract NumberPi is ERC721Enumerable, Ownable {\r\n  using Strings for uint256;\r\n\r\n  string public baseURI;\r\n  string public baseExtension = \".json\";\r\n  string public notRevealedUri;\r\n  uint256 public cost = 0.11 ether;\r\n  uint256 public maxSupply = 3141;\r\n  uint256 public maxMintAmount = 20;\r\n  uint256 public nftPerAddressLimit = 1000;\r\n  bool public paused = false;\r\n  bool public revealed = false;\r\n  bool public onlyWhitelisted = true;\r\n  address[] public whitelistedAddresses;\r\n  mapping(address => uint256) public addressMintedBalance;\r\n\r\n\r\n  constructor(\r\n    string memory _name,\r\n    string memory _symbol,\r\n    string memory _initBaseURI,\r\n    string memory _initNotRevealedUri\r\n  ) ERC721(_name, _symbol) {\r\n    setBaseURI(_initBaseURI);\r\n    setNotRevealedURI(_initNotRevealedUri);\r\n  }\r\n\r\n  // internal\r\n  function _baseURI() internal view virtual override returns (string memory) {\r\n    return baseURI;\r\n  }\r\n\r\n  // public\r\n  function mint(uint256 _mintAmount) public payable {\r\n    require(!paused, \"the contract is paused\");\r\n    uint256 supply = totalSupply();\r\n    require(_mintAmount > 0, \"need to mint at least 1 NFT\");\r\n    require(_mintAmount <= maxMintAmount, \"max mint amount per session exceeded\");\r\n    require(supply + _mintAmount <= maxSupply, \"max NFT limit exceeded\");\r\n\r\n    if (msg.sender != owner()) {\r\n      if(onlyWhitelisted == true) {\r\n        require(isWhitelisted(msg.sender), \"user is not whitelisted\");\r\n        uint256 ownerMintedCount = addressMintedBalance[msg.sender];\r\n        require(ownerMintedCount + _mintAmount <= nftPerAddressLimit, \"max NFT per address exceeded\");\r\n      }\r\n      require(msg.value >= cost * _mintAmount, \"insufficient funds\");\r\n    }\r\n\r\n    for (uint256 i = 1; i <= _mintAmount; i++) {\r\n      addressMintedBalance[msg.sender]++;\r\n      _safeMint(msg.sender, supply + i);\r\n    }\r\n  }\r\n\r\n  function isWhitelisted(address _user) public view returns (bool) {\r\n    for (uint i = 0; i < whitelistedAddresses.length; i++) {\r\n      if (whitelistedAddresses[i] == _user) {\r\n        return true;\r\n      }\r\n    }\r\n    return false;\r\n  }\r\n\r\n  function walletOfOwner(address _owner)\r\n  public\r\n  view\r\n  returns (uint256[] memory)\r\n  {\r\n    uint256 ownerTokenCount = balanceOf(_owner);\r\n    uint256[] memory tokenIds = new uint256[](ownerTokenCount);\r\n    for (uint256 i; i < ownerTokenCount; i++) {\r\n      tokenIds[i] = tokenOfOwnerByIndex(_owner, i);\r\n    }\r\n    return tokenIds;\r\n  }\r\n\r\n  function tokenURI(uint256 tokenId)\r\n  public\r\n  view\r\n  virtual\r\n  override\r\n  returns (string memory)\r\n  {\r\n    require(\r\n      _exists(tokenId),\r\n      \"ERC721Metadata: URI query for nonexistent token\"\r\n    );\r\n\r\n    if(revealed == false) {\r\n      return notRevealedUri;\r\n    }\r\n\r\n    string memory currentBaseURI = _baseURI();\r\n    return bytes(currentBaseURI).length > 0\r\n    ? string(abi.encodePacked(currentBaseURI, tokenId.toString(), baseExtension))\r\n    : \"\";\r\n  }\r\n\r\n  //only owner\r\n  function reveal() public onlyOwner {\r\n    revealed = true;\r\n  }\r\n\r\n  function setNftPerAddressLimit(uint256 _limit) public onlyOwner {\r\n    nftPerAddressLimit = _limit;\r\n  }\r\n\r\n  function setCost(uint256 _newCost) public onlyOwner {\r\n    cost = _newCost;\r\n  }\r\n\r\n  function setmaxMintAmount(uint256 _newmaxMintAmount) public onlyOwner {\r\n    maxMintAmount = _newmaxMintAmount;\r\n  }\r\n\r\n  function setBaseURI(string memory _newBaseURI) public onlyOwner {\r\n    baseURI = _newBaseURI;\r\n  }\r\n\r\n  function setBaseExtension(string memory _newBaseExtension) public onlyOwner {\r\n    baseExtension = _newBaseExtension;\r\n  }\r\n\r\n  function setNotRevealedURI(string memory _notRevealedURI) public onlyOwner {\r\n    notRevealedUri = _notRevealedURI;\r\n  }\r\n\r\n  function pause(bool _state) public onlyOwner {\r\n    paused = _state;\r\n  }\r\n\r\n  function setOnlyWhitelisted(bool _state) public onlyOwner {\r\n    onlyWhitelisted = _state;\r\n  }\r\n\r\n  function whitelistUsers(address[] calldata _users) public onlyOwner {\r\n    delete whitelistedAddresses;\r\n    whitelistedAddresses = _users;\r\n  }\r\n\r\n  function withdraw() public payable onlyOwner {\r\n    (bool os, ) = payable(owner()).call{value: address(this).balance}(\"\");\r\n    require(os);\r\n  }\r\n}",
  "sourcePath": "C:\\xampp\\htdocs\\W-NFT-Pi-Charity-Merge\\contracts\\SmartContract.sol",
  "compiler": {
    "name": "solc",
    "version": "0.8.4+commit.c7e474f2.Emscripten.clang"
  },
  "schemaVersion": "3.4.4",
  "updatedAt": "2022-02-12T05:14:19.538Z",
  "devdoc": {
    "kind": "dev",
    "methods": {
      "approve(address,uint256)": {
        "details": "See {IERC721-approve}."
      },
      "balanceOf(address)": {
        "details": "See {IERC721-balanceOf}."
      },
      "getApproved(uint256)": {
        "details": "See {IERC721-getApproved}."
      },
      "isApprovedForAll(address,address)": {
        "details": "See {IERC721-isApprovedForAll}."
      },
      "name()": {
        "details": "See {IERC721Metadata-name}."
      },
      "owner()": {
        "details": "Returns the address of the current owner."
      },
      "ownerOf(uint256)": {
        "details": "See {IERC721-ownerOf}."
      },
      "renounceOwnership()": {
        "details": "Leaves the contract without owner. It will not be possible to call `onlyOwner` functions anymore. Can only be called by the current owner. NOTE: Renouncing ownership will leave the contract without an owner, thereby removing any functionality that is only available to the owner."
      },
      "safeTransferFrom(address,address,uint256)": {
        "details": "See {IERC721-safeTransferFrom}."
      },
      "safeTransferFrom(address,address,uint256,bytes)": {
        "details": "See {IERC721-safeTransferFrom}."
      },
      "setApprovalForAll(address,bool)": {
        "details": "See {IERC721-setApprovalForAll}."
      },
      "supportsInterface(bytes4)": {
        "details": "See {IERC165-supportsInterface}."
      },
      "symbol()": {
        "details": "See {IERC721Metadata-symbol}."
      },
      "tokenByIndex(uint256)": {
        "details": "See {IERC721Enumerable-tokenByIndex}."
      },
      "tokenOfOwnerByIndex(address,uint256)": {
        "details": "See {IERC721Enumerable-tokenOfOwnerByIndex}."
      },
      "tokenURI(uint256)": {
        "details": "See {IERC721Metadata-tokenURI}."
      },
      "totalSupply()": {
        "details": "See {IERC721Enumerable-totalSupply}."
      },
      "transferFrom(address,address,uint256)": {
        "details": "See {IERC721-transferFrom}."
      },
      "transferOwnership(address)": {
        "details": "Transfers ownership of the contract to a new account (`newOwner`). Can only be called by the current owner."
      }
    },
    "version": 1
  },
  "userdoc": {
    "kind": "user",
    "methods": {},
    "version": 1
  }
}